:100342005389F0438901758A66758CFCC28DD28C03
:07035200D2A9D2AFC2B9220B
:10035900EF1FAC0670011E4C600A7D027CC7DCFEF3
:04036900DDFC80EC4B
:01036D00226D
:10000E00F303F3BDF46EF514F5B1F645F6D1F755DD
:10001E00F7D1F847F8B6F91FF981F9DFFA37FA8AFE
:10002E00FAD8FB22FB68FBAAFBE9FC23FC5BFC8FE6
:10003E00FCC1FCEFFD1BFD45FD6CFD91FDB4FDD536
:10004E00FDF4FE12FE2DFE48FE60FE78FE8EFEA230
:10005E00FEB6FEC9FEDAFEEBFEFAFF09FF17FF241D
:10006E00FF30FF3CFF47FF51FF5BFF64FF6DFF75E5
:10007E00FF7DFF84FF8BFF920000340332013002BC
:10008E0030023202300230043403320130023002C8
:10009E0032023702340434033201300230023202AB
:1000AE0030023002300132013308350828032601B0
:1000BE0024022402260224022404280326012402F8
:1000CE00240226022B0228042803260124022402DD
:1000DE0026022402240224012601270829083C02B4
:1000EE001A021A0218021A0118011304130213023B
:1000FE0018011A011A0218021A021C021D021A0213
:10010E001804170418041303130113083C021A02EF
:10011E001A021C021D011C0118043C0113011302DA
:10012E0018011A011A0218021A021C021D021A02E2
:10013E001804170415041303130113083C023C02A0
:10014E003C021702180213021A0213021C021A02B0
:10015E001D021D011C011C021A021A021C021C03A4
:10016E001A011A0213011301180217021A021802B9
:10017E001D061C011A0118081D021C021D021F0279
:10018E00240423041F02230224022602280324012E
:10019E0024013C011F022902280226022402260203
:1001AE00280128053C021F022402230224021F01FB
:1001BE001F013C021F022602240124013C022302DD
:1001CE0024042604230223022402260228032401E7
:1001DE0024013C011F0229022802260224022602C3
:1001EE00280128053C021F022402230224021F01BB
:1001FE001F013C021F022602240124013C0223029D
:10020E00230324053C023C023C0223022303240365
:10021E002602280324032302230324053C0318018A
:06022E001D011C01180176
:03000300010800F1
:1003140012034275F002E508A42489F582E5F0345D
:1003240000F583E49375F0BCA4FFAEF0120359C248
:0E0334008C7F057E00120359D28C050880D5FF
:03000B000202C02E
:1002C000C0E0C0F0C083C082C0D075D000C006C0FE
:1002D0000775F002E508A42488F582E5F03400F5FE
:1002E00083E493FF643C601BEF25E0240EF582E479
:1002F0003400F583E493FE740193F58AEEF58CB235
:10030000A58002C2A5D007D006D0D0D082D083D09D
:04031000F0D0E03217
:03000000020234C5
:0C023400787FE4F6D8FD75810802027B9B
:10024000020314E493A3F8E493A34003F68001F2BD
:1002500008DFF48029E493A3F85407240CC8C333BF
:10026000C4540F4420C8834004F456800146F6DF8E
:10027000E4800B0102040810204080900003E47E1B
:10028000019360BCA3FF543F30E509541FFEE49383
:10029000A360010ECF54C025E060A840B8E493A34A
:1002A000FAE493A3F8E493A3C8C582C8CAC583CA75
:1002B000F0A3C8C582C8CAC583CADFE9DEE780BE2D
:0100060000F9
:00000001FF
